{
  "contractName": "BiddingTicTacToe",
  "abi": [
    {
      "constant": true,
      "inputs": [
        {
          "name": "user",
          "type": "address"
        }
      ],
      "name": "userBalance",
      "outputs": [
        {
          "name": "balance",
          "type": "uint256"
        }
      ],
      "payable": false,
      "stateMutability": "view",
      "type": "function"
    },
    {
      "constant": false,
      "inputs": [
        {
          "name": "value",
          "type": "uint256"
        }
      ],
      "name": "withdraw",
      "outputs": [
        {
          "name": "",
          "type": "address"
        }
      ],
      "payable": false,
      "stateMutability": "nonpayable",
      "type": "function"
    },
    {
      "constant": true,
      "inputs": [
        {
          "name": "minGameBid",
          "type": "uint256"
        },
        {
          "name": "maxGameBid",
          "type": "uint256"
        }
      ],
      "name": "owner",
      "outputs": [
        {
          "name": "",
          "type": "address"
        },
        {
          "name": "currentMin",
          "type": "uint256"
        },
        {
          "name": "currentMax",
          "type": "uint256"
        },
        {
          "name": "gameStatus",
          "type": "string"
        }
      ],
      "payable": false,
      "stateMutability": "view",
      "type": "function"
    },
    {
      "constant": true,
      "inputs": [
        {
          "name": "minGameBid",
          "type": "uint256"
        },
        {
          "name": "maxGameBid",
          "type": "uint256"
        }
      ],
      "name": "fees",
      "outputs": [
        {
          "name": "",
          "type": "address"
        },
        {
          "name": "currentMin",
          "type": "uint256"
        },
        {
          "name": "currentMax",
          "type": "uint256"
        },
        {
          "name": "gameStatus",
          "type": "string"
        }
      ],
      "payable": false,
      "stateMutability": "view",
      "type": "function"
    },
    {
      "constant": false,
      "inputs": [
        {
          "name": "minGameBid",
          "type": "uint256"
        },
        {
          "name": "maxGameBid",
          "type": "uint256"
        }
      ],
      "name": "playWithStranger",
      "outputs": [
        {
          "name": "gameID",
          "type": "uint256"
        },
        {
          "name": "currentMin",
          "type": "uint256"
        },
        {
          "name": "currentMax",
          "type": "uint256"
        },
        {
          "name": "gameStatus",
          "type": "string"
        }
      ],
      "payable": true,
      "stateMutability": "payable",
      "type": "function"
    },
    {
      "constant": false,
      "inputs": [],
      "name": "topUp",
      "outputs": [
        {
          "name": "balance",
          "type": "uint256"
        }
      ],
      "payable": true,
      "stateMutability": "payable",
      "type": "function"
    }
  ],
  "bytecode": "0x6060604052341561000f57600080fd5b610b548061001e6000396000f300606060405260043610610078576000357c0100000000000000000000000000000000000000000000000000000000900463ffffffff1680630103c92b1461007d5780632e1a7d4d146100ca5780638da5cb5b146100ed5780639af1d35a14610142578063b854cbe114610197578063dc29f1de14610246575b600080fd5b341561008857600080fd5b6100b4600480803573ffffffffffffffffffffffffffffffffffffffff16906020019091905050610264565b6040518082815260200191505060405180910390f35b34156100d557600080fd5b6100eb60048080359060200190919050506102ad565b005b34156100f857600080fd5b6101006103a3565b604051808273ffffffffffffffffffffffffffffffffffffffff1673ffffffffffffffffffffffffffffffffffffffff16815260200191505060405180910390f35b341561014d57600080fd5b6101556103c8565b604051808273ffffffffffffffffffffffffffffffffffffffff1673ffffffffffffffffffffffffffffffffffffffff16815260200191505060405180910390f35b6101b660048080359060200190919080359060200190919050506103ee565b6040518085815260200184815260200183815260200180602001828103825283818151815260200191508051906020019080838360005b838110156102085780820151818401526020810190506101ed565b50505050905090810190601f1680156102355780820380516001836020036101000a031916815260200191505b509550505050505060405180910390f35b61024e610943565b6040518082815260200191505060405180910390f35b6000600360008373ffffffffffffffffffffffffffffffffffffffff1673ffffffffffffffffffffffffffffffffffffffff168152602001908152602001600020549050919050565b6000600360003373ffffffffffffffffffffffffffffffffffffffff1673ffffffffffffffffffffffffffffffffffffffff1681526020019081526020016000205490506000811180156103015750808211155b151561030c57600080fd5b6000821415610319578091505b818103600360003373ffffffffffffffffffffffffffffffffffffffff1673ffffffffffffffffffffffffffffffffffffffff168152602001908152602001600020819055503373ffffffffffffffffffffffffffffffffffffffff166108fc839081150290604051600060405180830381858888f19350505050151561039f57600080fd5b5050565b6000809054906101000a900473ffffffffffffffffffffffffffffffffffffffff1681565b600160009054906101000a900473ffffffffffffffffffffffffffffffffffffffff1681565b60008060006103fb610a54565b6000610405610a68565b600080891180156104165750888810155b151561042157600080fd5b606434118061046f57506000600360003373ffffffffffffffffffffffffffffffffffffffff1673ffffffffffffffffffffffffffffffffffffffff16815260200190815260200160002054115b151561047a57600080fd5b600034111561048d5761048b610943565b505b7f800000000000000000000000000000000000000000000000000000000000000095507fffffffffffffffffffffffffffffffffffffffffffffffffffffffffffffffff925060016004805490500390505b6000811015156106e8576004818154811015156104f857fe5b9060005260206000209060030201606060405190810160405290816000820160009054906101000a900473ffffffffffffffffffffffffffffffffffffffff1673ffffffffffffffffffffffffffffffffffffffff1673ffffffffffffffffffffffffffffffffffffffff1681526020016001820154815260200160028201548152505091503373ffffffffffffffffffffffffffffffffffffffff16826000015173ffffffffffffffffffffffffffffffffffffffff1614156105ba578092505b85826020015110156105ce57816020015195505b84826040015111156105e257816040015194505b878260200151111580156105fa575088826040015110155b156106da576001600554019650866005819055506000826000019073ffffffffffffffffffffffffffffffffffffffff16908173ffffffffffffffffffffffffffffffffffffffff1681525050600082602001818152505060008260400181815250508160048281548110151561066d57fe5b906000526020600020906003020160008201518160000160006101000a81548173ffffffffffffffffffffffffffffffffffffffff021916908373ffffffffffffffffffffffffffffffffffffffff16021790555060208201518160010155604082015181600201559050505b8080600190039150506104df565b7fffffffffffffffffffffffffffffffffffffffffffffffffffffffffffffffff8314156107f1576001600554019650866005819055506060604051908101604052803373ffffffffffffffffffffffffffffffffffffffff1681526020018a8152602001898152506004808054905081548110151561076457fe5b906000526020600020906003020160008201518160000160006101000a81548173ffffffffffffffffffffffffffffffffffffffff021916908373ffffffffffffffffffffffffffffffffffffffff160217905550602082015181600101556040820151816002015590505060c06040519081016040528060888152602001610aa1608891399350610937565b82905060048181548110151561080357fe5b9060005260206000209060030201606060405190810160405290816000820160009054906101000a900473ffffffffffffffffffffffffffffffffffffffff1673ffffffffffffffffffffffffffffffffffffffff1673ffffffffffffffffffffffffffffffffffffffff1681526020016001820154815260200160028201548152505091508882602001511415806108a0575087826040015114155b15610936578882602001818152505087826040018181525050816004828154811015156108c957fe5b906000526020600020906003020160008201518160000160006101000a81548173ffffffffffffffffffffffffffffffffffffffff021916908373ffffffffffffffffffffffffffffffffffffffff16021790555060208201518160010155604082015181600201559050505b5b50505092959194509250565b60008060643411151561095557600080fd5b60643481151561096157fe5b0490508034600360003373ffffffffffffffffffffffffffffffffffffffff1673ffffffffffffffffffffffffffffffffffffffff168152602001908152602001600020540103915081600360003373ffffffffffffffffffffffffffffffffffffffff1673ffffffffffffffffffffffffffffffffffffffff16815260200190815260200160002081905550600160009054906101000a900473ffffffffffffffffffffffffffffffffffffffff1673ffffffffffffffffffffffffffffffffffffffff166108fc829081150290604051600060405180830381858888f193505050501515610a5057600080fd5b5090565b602060405190810160405280600081525090565b606060405190810160405280600073ffffffffffffffffffffffffffffffffffffffff1681526020016000815260200160008152509056004177616974696e6720666f72206120737472616e67657220746f206a6f696e2e20536861726520746869732067616d6520746f20676574206f70706f6e656e74206661737465723a2068747470733a2f2f62696464696e67746963746163746f652e636f6d2f657468657269756d2d67616d653f69643d594f55525f47414d455f49445f48455245a165627a7a723058201117a57e88d27b43e1cf93690c97876157f59b85e53989990dfa0ca949f895030029",
  "source": "pragma solidity ^0.4.17;\n\n\ncontract BiddingTicTacToe {\n\n    // Play at:\n    //\n    //   * Web: https://BiddingTicTacToe.com\n    //\n    //   * Telegram: https://t.me/BiddingTicTacToeBot\n\n    address public owner; // Creator of the contract\n    address public fees; // 1% fee is accumulated here on top-ups\n//    address public server; // Controls & changes balances\n\n    //        uint txPrice = tx.gasprice * gasCostToWithdraw;\n\n    enum Player {None, X, O}\n\n    struct Game {\n    address PlayerX;\n    address PlayerO;\n    uint bank;\n    Player winner;\n    }\n\n    mapping (uint => Game) games;\n\n    uint constant gasCostToStartGame = 1000;\n\n    uint constant gasCostToJoinGame = 1000;\n\n    uint constant gasCostToBid = 1000;\n\n    uint constant gasCostToWithdraw = 22000;\n\n    mapping (address => uint) balances;\n\n\n    function topUp() public payable returns (uint balance){\n        require(msg.value > 100);\n        uint fee = msg.value / 100;\n        balance = balances[msg.sender] + msg.value - fee;\n        balances[msg.sender] = balance;\n        fees.transfer(fee);\n    }\n\n    function withdraw(uint value) public {\n        var balance = balances[msg.sender];\n        require(balance > 0 && value <= balance);\n        if (value == 0) {\n            value = balance;\n        }\n        balances[msg.sender] = balance - value;\n        msg.sender.transfer(value);\n    }\n\n    function userBalance(address user) public constant returns (uint balance) {\n        return balances[user];\n    }\n\n    struct Stranger {\n    address user;\n    uint minGameBid;\n    uint maxGameBid;\n    }\n\n    Stranger[] strangers;\n\n    uint lastGameID;\n\n    function playWithStranger(uint minGameBid, uint maxGameBid) public payable returns (uint gameID, uint currentMin, uint currentMax, string gameStatus) {\n        require(minGameBid > 0 && maxGameBid >= minGameBid);\n        require(msg.value > 100 || balances[msg.sender] > 0);\n        if (msg.value > 0) {\n            topUp();\n        }\n        currentMin = 1 << 255;\n        int selfIndex = - 1;\n        Stranger memory stranger;\n        for (uint i = strangers.length - 1; i >= 0; i--) {\n            stranger = strangers[i];\n            if (stranger.user == msg.sender) {\n                selfIndex = int(i);\n            }\n            if (stranger.minGameBid < currentMin) {\n                currentMin = stranger.minGameBid;\n            }\n            if (stranger.maxGameBid > currentMax) {\n                currentMax = stranger.maxGameBid;\n            }\n            if (// match\n            stranger.minGameBid <= maxGameBid && stranger.maxGameBid >= minGameBid) {\n                gameID = lastGameID + 1;\n                lastGameID = gameID;\n                stranger.user = 0;\n                stranger.minGameBid = 0;\n                stranger.maxGameBid = 0;\n                strangers[i] = stranger;\n            }\n        }\n        if (selfIndex == - 1) {\n            gameID = lastGameID + 1;\n            lastGameID = gameID;\n            strangers[strangers.length] = Stranger({user : msg.sender, minGameBid : minGameBid, maxGameBid : maxGameBid});\n            gameStatus = \"Awaiting for a stranger to join. Share this game to get opponent faster: https://biddingtictactoe.com/etherium-game?id=YOUR_GAME_ID_HERE\";\n        }\n        else {\n            i = uint(selfIndex);\n            stranger = strangers[i];\n            if (stranger.minGameBid != minGameBid || stranger.maxGameBid != maxGameBid) {\n                stranger.minGameBid = minGameBid;\n                stranger.maxGameBid = maxGameBid;\n                strangers[i] = stranger;\n            }\n        }\n    }\n\n//    function uintToBytes(uint v) private pure returns (bytes32 ret) { // https://github.com/pipermerriam/ethereum-string-utils\n//        if (v == 0) {\n//            ret = '0';\n//        }\n//        else {\n//            while (v > 0) {\n//                ret = bytes32(uint(ret) / (2 ** 8));\n//                ret |= bytes32(((v % 10) + 48) * 2 ** (8 * 31));\n//                v /= 10;\n//            }\n//        }\n//        return ret;\n//    }\n}\n",
  "sourcePath": "/Users/astec/go_workspace/src/github.com/prizarena/bidding-tictactoe/server-go/bttt-contract/contracts/BiddingTicTacToe.sol",
  "compiler": {
    "name": "solc",
    "version": "0.4.18+commit.9cf6e910.Emscripten.clang"
  },
  "schemaVersion": "1.0.1",
  "updatedAt": "2017-12-13T01:22:06.099Z"
}